:020000040800F2
:10000000D0090020255100082D510008BF0D00081F
:10001000315100083351000835510008000000003C
:100020000000000000000000000000003751000840
:1000300039510008000000003B510008B30D0008D2
:100040003F5100083F5100083F5100083F51000850
:100050003F5100083F5100083F5100083F51000840
:100060003F5100083F5100083F5100083F51000830
:100070003F5100083F5100083F5100083F51000820
:100080003F5100083F5100083F5100083F51000810
:100090003F5100083F5100083F5100083F51000800
:1000A0003F5100083F5100083F5100083F510008F0
:1000B0003F5100083F5100083F5100083F510008E0
:1000C0003F5100083F5100083F5100083F510008D0
:1000D0003F510008CD1000083F5100083F51000873
:1000E0003F5100083F5100083F5100083F510008B0
:1000F0003F5100083F5100083F5100083F510008A0
:100100003F5100083F5100083F5100083F5100088F
:10011000591000083F5100083F5100083F510008A6
:100120003F5100083F5100083F5100083F5100086F
:100130003F5100083F5100083F5100083F5100085F
:100140003F5100083F5100083F5100083F5100084F
:100150003F5100083F5100083F5100083F5100083F
:100160003F5100083F5100083F5100083F5100082F
:100170003F5100083F5100083F5100083F5100081F
:100180003F5100083F51000800F002F800F058F815
:100190000AA090E8000C82448344AAF10107DA45E2
:1001A00001D100F04DF8AFF2090EBAE80F0013F0DC
:1001B000010F18BFFB1A43F00103184740830000EA
:1001C00060830000103A24BF78C878C1FAD852077B
:1001D00024BF30C830C144BF04680C6070470000C1
:1001E0000023002400250026103A28BF78C1FBD840
:1001F000520728BF30C148BF0B607047662907F01F
:100200002087642904F0F287752904F0EF877329A9
:1002100005F0D385002070471FB507F0D5FE06F026
:10022000CFF804000020002107F04EFC401C606065
:100230000020002107F032FCE0601FBD10B510BDAA
:1002400006F084FB1146FFF7E7FF00F040FC06F0E4
:10025000D5FD03B4FFF7F2FF03BC06F0EBFD000091
:1002600010EE100AC0F3C751FF2901D0012100E0B0
:10027000002159B1B4EEE00AF1EE10FA06DBB4EE5B
:10028000C10AF1EE10FA01D8012070470020FCE706
:100290000146B1F9000000283ADBB1F9020000285C
:1002A00036DBB1F90400002832DDB1F90600002880
:1002B0002EDDB1F90000B1F904201044B0F5A07FA3
:1002C00026DCB1F90200B1F906201044F0281FDC49
:1002D000B1F90800B1F90020904219DBB1F9000032
:1002E000B1F904201044B1F90820904210DDB1F9B1
:1002F0000A00B1F9022090420ADBB1F90200B1F91B
:1003000006201044B1F90A20904201DD0120704717
:100310000020FCE72DE9F0410446207860B36078C6
:1003200050B3B4F8740038B3B4F87400B0F5967FE5
:1003300022DCE06FB0F57A7F1ED342F21071E06FDD
:10034000884219D8A06F642816D34910A06F88423C
:1003500012D8D4ED180AB0EE600A9FEDF01AF7EE4D
:10036000000AFFF77DFF38B1B4F98000012803DBF4
:10037000B4F980000A2802DD0020BDE8F0810025E4
:1003800054E0201D00EB8500D0ED000AB0EE600ABD
:100390009FEDE31AF7EE000AFFF762FFF0B304F1F6
:1003A0001C0000EB8500D0ED000AB0EE600A9FED66
:1003B000DD1AF2EE040AFFF753FF78B304F10C00E4
:1003C00000EB8500D0ED000AB0EE600A9FEDD61A72
:1003D000DFEDD60AFFF744FF00B304F1140000EB91
:1003E0008500D0ED000AB0EE600A9FEDCF1ADFED78
:1003F000CF0AFFF735FF88B104F10C0000EB850050
:1004000090ED000A04F1140000EB8500D0ED000A25
:10041000B4EEE00AF1EE10FA05DA00E003E0A01C09
:10042000405D012801DD0020A7E76D1C022DA8D347
:10043000002541E004F13C0000EB8500D0ED000A0E
:10044000B0EE600A9FEDBA1ADFEDBA0AFFF708FFB7
:1004500078B304F13C0000EB8500D0ED000AB0EE6B
:10046000601A04F1480000EB8500D0ED000AB0EE00
:10047000600ADFEDB10AFFF7F3FED0B104F13C00F2
:1004800000EB8500D0ED001AB0EE611A04F14800CF
:1004900000EB8500D0ED001AF0EE610A04F1540083
:1004A00000EB8500D0ED001AB0EE610AFFF7D8FE30
:1004B00008B9002061E76D1C032DBBD394ED150A2C
:1004C000B0EE401A94ED120AF0EE400AB3EE0E0AB6
:1004D000FFF7C6FEF0B394ED150AB0EE401A94EDA6
:1004E000120AF0EE400A9FED950AFFF7B9FE88B3B5
:1004F000D4ED061AB0EE611AD4ED041AF0EE610ADA
:10050000D4ED091AB0EE610AFFF7AAFE10B3D4EDDC
:10051000051AB0EE611AD4ED031AF0EE610AD4EDBB
:100520000A1AB0EE610AFFF79BFE98B1D4ED171AD4
:10053000B0EE611AD4ED141AF0EE610AD4ED0B1A84
:10054000B0EE610AFFF78CFE20B1D4ED190AB0EECF
:10055000600A00E02BE0B0EE001ADFED790AFFF749
:100560007FFE20B3D4ED1A0AB0EE600AB0EE001A96
:10057000DFED730AFFF774FEC8B194ED191AF0EEBF
:10058000410A94ED1B1AB0EE410AB2EE0E1AFFF7C3
:1005900067FE60B194ED1A1AF0EE410A94ED1C1A50
:1005A000B0EE410AB2EE0E1AFFF75AFE08B900206B
:1005B000E3E6002515E0D4ED161AB0EE611AD4ED8D
:1005C000131AF0EE610A04F1300000EB8500D0ED63
:1005D000001AB0EE610AFFF743FE08B90020CCE62E
:1005E0006D1C032DE7D3002592E04DB1681EC0EBD2
:1005F000C00000EB400104F1D80000EB810001E0F5
:1006000004F184000646D4ED051AB0EE611AD4ED6B
:10061000031AF0EE610AD6ED001AB0EE610AFFF798
:100620001FFE38B3D4ED061AB0EE611AD4ED091AE4
:10063000F0EE610AD6ED021AB0EE610AFFF710FE85
:10064000C0B1D4ED171AB0EE611AD4ED141AF0EE61
:10065000610AD6ED011AB0EE610AFFF701FE48B15A
:1006600006F10C00FFF714FE20B106F11800FFF7A9
:100670000FFE08B9002080E600272FE006F12400D5
:1006800000EB8700D0ED000AB0EE600AB2EE041A6B
:10069000FAEE040AFFF7E4FDE8B106F1340000EBDE
:1006A0008700D0ED000AB0EE600A9FED1C1ADFED66
:1006B000250AFFF7D5FD70B106F1440000EB870075
:1006C000D0ED000AB0EE600A9FED141ADFED1D0AAE
:1006D000FFF7C6FD08B900204FE67F1C042FCDD3DD
:1006E00096ED090AD6ED0C0A20EE200AD6ED0A0A8C
:1006F00096ED0B1A00EEC10AB0EEC00ADFED120A49
:10070000B4EEE00AF1EE10FA01D2002035E66D1CDD
:10071000042DFFF46AAF01202FE600000000C8425C
:1007200000401C460000FA4400007A4400007AC4ED
:100730000000B4430000B442000000000000A042EA
:100740000AD7233C0000C8C2BD3786352DE9F043E7
:100750002DED0A8BC9B00646FEA1304605F040F8E3
:1007600038B9FEA001F034FB49B0BDEC0A8BBDE8FE
:10077000F083FDA1304605F033F800285DD1042058
:1007800000F045FE10EE109A484607F0A5FB41EC3C
:10079000180B032000F03BFE10EE109A484607F0BD
:1007A0009BFB41EC190B022000F031FE10EE109A79
:1007B000484607F091FB41EC1A0B012000F027FEA0
:1007C00010EE109A484607F087FB41EC1B0B002007
:1007D00000F01DFE10EE109A484607F07DFB41EC3C
:1007E0001C0B00F007FE054600F0F9FD074600F07F
:1007F0000BFE80468DED108B8DED0E9B8DED0CABC1
:100800008DED0ABB8DED08CBD948006CCDE903878F
:10081000CDE90505D648417A007AD54AD279CDE9A5
:1008200000200291D2480378D24AA02112A804F0F5
:1008300099FC12A800F09FFC96E701F0BAFA10B9F3
:1008400000F0CDFD18B1CCA000F095FC8CE73AA8E3
:1008500044A945AA46ABCDE90032CDE9021047AB29
:1008600048AACCA1304604F085FD052816D19DED9F
:10087000442ADDED451A9DED461ADDED470A9DED52
:10088000480A00F0CFFD28B101F08AFAC7A000F0B5
:1008900072FC02E0D3A000F06EFC65E73AA848AB1A
:1008A00043AAD4A10090304604F064FD022827D169
:1008B0004398012813D8489800F04EFA78B143982D
:1008C00000F0A5FDDDED480A30EEC00AB0EEC00A2A
:1008D000F0EE000AB4EEE00AF1EE10FA03DDC9A072
:1008E00000F049FC0BE09DED480A439800F059FEEA
:1008F00008B1C9A000E0C9A0054600F03CFC33E700
:100900003AA848AB43AAC8A10090304604F032FD93
:10091000022828D14398022814D8489800F01CFADD
:1009200080B14398801C00F072FDDDED480A30EE86
:10093000C00AB0EEC00AF1EE040AB4EEE00AF1EE2D
:1009400010FA03DDBCA000F016FC0BE09DED480A98
:10095000439800F0FFFE08B1AFA000E0AFA005464D
:1009600000F009FC00E73AA83DA940AB43AACDE955
:100970000010B8A1304604F0FDFC03285FD1439875
:1009800060B14398042809D8409838B140980628A7
:1009900004D83D9810B13D98032803D9B2A000F0C7
:1009A000EAFBE1E64398012801D1B2481FE04398F1
:1009B000032802D1AF480C3019E0439802280BD12C
:1009C0003D98401EC0EBC00000EB4001A9484830F4
:1009D00000EB81000C300AE03D98401EC0EBC000E7
:1009E00000EB4001A348483000EB81001830054679
:1009F0001C21A14804F0CDFE01209F4908719F48A9
:100A00000068401C9D4908609B49086043984871F4
:100A1000409888713D98C8712888488169889648AF
:100A20008181A988C181E9880182298941826989F6
:100A3000818200F08AFB92A000F09DFB94E63AAB25
:100A40003FA842A93EAACDE90303CDE9012141A86F
:100A50003DAB40AA8DA10090304604F08BFC0628E7
:100A600030D1002420E040A850F8240068B140A80C
:100A700050F82400062808D83DA850F8240020B1DA
:100A80003DA850F82400032803D987A000F073FB89
:100A90006AE640A810F824003CA908553DA810F8C3
:100AA00024003BA90855641C032CDCD33BA93CA8BB
:100AB00001F09BF908B17FA000E080A0054600F09E
:100AC0005AFB51E68A4800F056FB00BF4CE6D0B016
:100AD000242147A804F05DFE002400F0ADF901F0E8
:100AE0005FF9844800F047FB00BF00F09CFE00F077
:100AF00020FF28B12CB980A001F06AF9012400E0A0
:100B0000002480211FA800F076FB18B114B91FA89B
:100B1000FFF71CFE0BE140AA9DF8FC1047A800F06F
:100B2000C1FFA0B19DF80401022811D1524940989B
:100B3000096888420CD101F03CF948B9BDF91201AD
:100B4000BDF91011BDF90E21BDF90C31DAE0EEE06E
:100B5000EAE0000053544F50000000005553455246
:100B60005F53544F500000005354415455530000FC
:100B7000280300208C840008425553593A205354CE
:100B80004F50206F7220535441545553206F6E6C58
:100B9000790000005A45524F202566202566202501
:100BA00066202566202566202563000052454645BF
:100BB00052454E43455F41434345505445442028E8
:100BC0006D616E75616C20706879736963616C200A
:100BD000706C6163656D656E7420726571756972A4
:100BE000656429005A45524F5F52454A4543544572
:100BF00044000000415849532025752025662025D2
:100C0000630000004A4F475F4C494D49543A206DFC
:100C100061782032206D6D004F4B000052454A45EF
:100C20004354454400000000534552564F2025755B
:100C300020256620256300004A4F475F4C494D49F7
:100C4000543A206D6178203520646567726565735C
:100C500000000000534E41502025752025752025A9
:100C600075202563000000004241445F534E41500F
:100C700000000000D4810008600000200000002077
:100C8000534E41505F53454E54000000535441525F
:100C9000542025752025752025752025752025755E
:100CA00020257520256300004241445F504C414E91
:100CB00000000000535441525445440053544152E3
:100CC000545F52454A45435445443A2063616C6938
:100CD00062726174696F6E2F7265666572656E63AC
:100CE000652F706C616E2F73746174650000000075
:100CF000F8830008AC8300085043395F53544F50C9
:100D000000000000CDE90132CDE90310BDF90A0170
:100D100000909DF8083115A2642106A804F022FA7B
:100D200006A800F028FA02E040A801F0C8F93FA8A0
:100D300000F0B6F900287FF4EEAE01F0B7FB00F04A
:100D400059FB00283FF4D1AE00F05EFB0028F9D03B
:100D500012A001F03DF8C8E60146C1F3C750FF28D4
:100D600001D0012070470020FCE70000564953499C
:100D70004F4E20666C6167733D257520753D256477
:100D800020763D2564207175616C6974793D256418
:100D900020773D256420683D256400004841524489
:100DA000574152455F4641554C540000F748006892
:100DB0007047F6480068401CF4490860704700BF5F
:100DC000FEE72DE9FC4107460C4615461E46DDF8B8
:100DD0002080684602F0B6FB009402208DF80400E3
:100DE0008DF8050000208DF8060001208DF8070021
:100DF0006946384602F05EFB42462946384602F014
:100E0000E4FB42463146384602F0DFFBBDE8FC8198
:100E10001FB50446684603F030FB4FF4E130009004
:100E20000C20ADF80A006946204603F0C0FA012103
:100E3000204603F044FB1FBD30B597B000F034FFEF
:100E4000D34800684FF47A72B0FBF2F1481EB0F15B
:100E5000807F00D31BE0481E4FF0E0225061501706
:100E60000F22002807DA13071D0ECA4B00F00F04EB
:100E7000241F1D5503E013071C0EC74B1C5400BF55
:100E800000204FF0E02290610720106100BF4FF476
:100E9000A06001F0EBFE0121052002F031F90121F3
:100EA000BE4802F076F90121102002F083F90820F3
:100EB0000B230A224FF440610090B948FFF781FFED
:100EC00007200A2309224FF4C0610090B548FFF7BC
:100ED00078FFB548FFF79CFFB448FFF799FF012260
:100EE00040F22551B04803F0A0FB342000F042FD51
:100EF000012240F22551AD4803F097FB252000F078
:100F000039FD09200C230B2259020090A548FFF758
:100F100058FF14A803F032FD01208DF857008DF81A
:100F200059008DF85B000720ADF8500008208DF8BF
:100F3000540001208DF8550014A99D4803F013FCBE
:100F4000012802D001209B490870002010901190C8
:100F5000129013908DF84B0001208DF84C0000206A
:100F6000ADF8480001208DF84D0010A803F085FC75
:100F7000012002230246062100908A48FFF721FF44
:100F800001220321874802F020FB06A802F0DAFACA
:100F90000820069002208DF81C0000208DF81E000D
:100FA00006A9804802F086FA02A801F0D8FF0DA831
:100FB00002F025FCDDE90310884201D1012000E0A8
:100FC0000220049948437C49B0FBF1F0401E80B2F6
:100FD000ADF8340044F61F600E900DA94FF080402C
:100FE00002F0D9FB08A802F08FFD6020ADF82000C8
:100FF0000120ADF8220000200A9008A94FF080409F
:1010000002F097FC08A94FF0804002F0DFFC08A92D
:101010004FF0804002F040FD0121880702F044FCBF
:1010200006A802F08FFA4FF40070069000208DF8A9
:101030001C0001208DF81F0006A9594802F03AFA59
:1010400002A801F08CFF5D490298884202D001207D
:101050005849087017B030BD10B5534B19881B1D87
:101060001B88DAB201F00E031BB10123544C23702C
:1010700010BD01F020038BB1524B1B885B1CD8B212
:10108000514B1B88984203D101234D4C237005E03E
:101090004E4B4C4C24881A554A4B188000BFE7E74A
:1010A000014649480088474A1288904201D10020F1
:1010B00070474648444A1288805C0870424800885D
:1010C000401CC0B2404A10800120F1E710B5374BF8
:1010D00019889B88DAB201F00E031BB10123384C4A
:1010E000237010BD01F020038BB1394B1B885B1CB2
:1010F000D8B2384B1B88984203D10123304C23705F
:1011000005E0354B324C24881A55314B188000BF0E
:10111000E7E770B504460D461C48066809E01B4821
:101120000068801B052804D901202249087000208E
:1011300070BD8021204603F09DFA0028EFD029469B
:10114000204603F0E7F90120F2E730B589B0054603
:1011500001A9284600F064FC002407E001A8015D15
:101160001148FFF7D6FF00B902E0641C1E2CF5D32E
:1011700000BF09B030BD10B504462FE014F8011BC4
:101180000A48FFF7C6FF00B910BD27E004000020A1
:101190003800002018ED00E000E400E00100080243
:1011A0000008024000000240004C004000100140D6
:1011B000006400400800002040420F00007A030A4B
:1011C000090000200A0000200C0000207C00002004
:1011D0000E000020100000207C0100202078002854
:1011E000CCD10D21FE48FFF794FF0A21FC48FFF700
:1011F00090FF00BF10BD70B506460D464AE0F948A5
:10120000F9490988445CF8480088401CC0B2F64996
:1012100008800A2C01D00D2C25D1F448006828B193
:101220000020F2490860F249086033E0F0480068A5
:1012300040B30020EF49EE4A12688854EC48006839
:10124000A84202D3681EEA490860E948E9490268F1
:10125000304604F0C3F90020E54909687054E449B8
:101260000860012070BDE148006858B9E048006896
:101270007F2808D2DE4801680068401CDC4A106004
:10128000DC48445405E00120D84908600020D849D2
:10129000086000BFD4480088D74909888842AED189
:1012A0000020DFE72DE9F04F85B004460D464FF0F2
:1012B00002094FF0000B032D05DB2078052808D02C
:1012C0002078062805D00120CC49087005B0BDE87B
:1012D000F08F50E01421684604F05BFA58460BF199
:1012E000010B217840EA0120019004208DF80800CC
:1012F00000208DF8090060788DF80B00012607E0CA
:10130000484609F10109215C0DF10B008155761C5D
:10131000082E01D2A945F3D3F0B28DF80A00694630
:10132000B74803F099FB0746042F03D10120B349C6
:101330000870CBE7B348D0F800A000BF3946B048EA
:1013400003F022FC8046AF480068A0EB0A00142896
:1013500007D93946AA4803F05CFC0120A749087068
:10136000B4E7B8F1020FE9D0B8F1010F03D00120C2
:10137000A2490870AAE7A945ACD300BFA6E770B59B
:101380002DED028B0446B0EE408A9FED9F0A68EE79
:10139000000A9E4800EB840090ED001A80EE810A5E
:1013A000DFED9B0A30EE200ABCEEC00A10EE100AF8
:1013B00085B22CB929464FF0804002F0DCFB0BE0EF
:1013C000012C04D12946A00702F0D7FB04E02946EE
:1013D0004FF0804002F0D3FBBDEC028B70BD8D4816
:1013E000006888490968401A002801DD012070471B
:1013F0000020FCE78148007810B98748007808B1E0
:10140000012070470020FCE78448006870470528E9
:1014100005D2834901EB800191ED000A70479FEDF1
:10142000810AFBE710B52DED068B86B0B0EE408A41
:10143000F0EE608AB0EE419AF0EE619AB0EE42AA08
:10144000FFF7CDFF10B9FFF7D5FF20B1002006B0A0
:10145000BDEC068B10BD8DED018ACDED028A8DEDC0
:1014600003AACDED049A8DED059A00240DE001A8A4
:1014700000EB840090ED000A10EE101A084600F010
:1014800084FA08B90020E2E7641C052CEFD300249D
:1014900022E001A800EB840090ED000A5B483038A0
:1014A00000EB8400D0ED000AB4EEE00AF1EE10FA91
:1014B0000FD301A800EB840090ED000A53482838B0
:1014C00000EB8400D0ED000AB4EEE00AF1EE10FA71
:1014D00001DD0020BBE7641C022CDAD3002423E0EA
:1014E00001A9A01C01EB800090ED000A47480C30D8
:1014F00000EB8400D0ED000AB4EEE00AF1EE10FA41
:101500000FD3A01C01EB800090ED000A3F4818307B
:1015100000EB8400D0ED000AB4EEE00AF1EE10FA20
:1015200001DD002093E7641C032CD9D3142201A908
:101530003B4804F0DAF8002415E001A9A01C01EBF7
:10154000800090ED000A384800EB840080ED000A2E
:10155000A01C01EB8000D0ED000AB0EE600A20462E
:10156000FFF70DFF641C032CE7D3002201210520A7
:1015700001F030FA00220121062001F02BFAFFF7DA
:1015800039FF08B1002062E70120244908601F48A4
:101590003C38806F1B49096808441E4908600120D7
:1015A00055E770B52DED028B84B00446B0EE408A4D
:1015B000012C4AD81948006888B1FFF710FF70B9AC
:1015C000FFF718FF58B918EE100A00F0DEF930B135
:1015D0000E48303800EB840090ED000A26E034E03D
:1015E000001001407C0100201000002018000020A5
:1015F000140000207C0200200E00002008000020C3
:1016000000640040040000200000FA4480810008CB
:101610000000FA4320000020090000201C000020E8
:10162000FC0200200000000010030020B4EEC80AF5
:10163000F1EE10FA09DCD94800EB840090ED000AC5
:10164000B4EEC80AF1EE10FA04D2002004B0BDECEA
:10165000028B70BDD24800EB840090ED000A78EE5A
:10166000408AF0EEE80ACD48103800EB840090ED97
:10167000001AB6EE000A00EE810ABCEEC00A10EEB7
:10168000105AF5EEC08AF1EE10FA03DBC3481238A7
:10169000005D06E0C1481238005D08B9012000E095
:1016A000002006468DB10020CDE90050BB49143919
:1016B000029091F87630B1F874200CB1052100E069
:1016C00006210846314601F0C9F9FFF793FE08B13B
:1016D0000020BBE7F5EEC08AF1EE10FA01DB012035
:1016E00001E04FF0FF3000EE100AF8EEC00A00EE05
:1016F000105AB8EE400A20EE800AA848103800EBD5
:10170000840090ED001AC0EE010AA54800EB8400A9
:1017100090ED000A30EE800AA14800EB840080EDD5
:10172000000AB0EEE80A9D48083000EB8400D0EDD6
:10173000000A20EE200ABCEEC00A10EE100A9949F9
:101740000968084495491439896F08449649086026
:1017500001207BE710B52DED028B0446B0EE408AE8
:10176000022C23D89148006800B3FFF738FEE8B98F
:10177000FFF740FED0B918EE100A00F006F9A8B144
:101780008648343000EB840090ED000AB4EEC80ABD
:10179000F1EE10FA0ADC8148403000EB840090ED55
:1017A000000AB4EEC80AF1EE10FA03D20020BDEC34
:1017B000028B10BD7A49A01C01EB800090ED000A5D
:1017C0007B4800EB840080ED000A7A4800EB84003F
:1017D00080ED008A73480068774908607049A01C52
:1017E00001EB800090ED000A38EE400AB0EEC00A2E
:1017F0006A481438D0ED180A20EE200ABCEEC00A60
:1018000010EE100A64306D4908606D480460654848
:1018100000680968084461491439896F08446249BD
:1018200008600120C3E710B52DED028B86B0644837
:101830000068002850DB624804685A4800685E4926
:101840000968401A00EE100AF8EE400A5B4890ED75
:10185000000AB8EE400A80EE801AB0EE418AB7EE78
:10186000000AB4EEC08AF1EE10FA07DBB7EE000A08
:10187000B0EE408A4FF0FF30514908604D4800EB10
:10188000840090ED000A4A4800EB8400D0ED000A85
:1018900070EE600A28EE081AB0EE080AF0EE001AA0
:1018A00001EEC80A21EE001A414800EB840090EDD9
:1018B000000A00EE810A3A49A01C01EB800080ED8D
:1018C000000AA01C01EB8000D0ED000AB0EE600A17
:1018D0002046FFF754FD00BF04E001AA002139486B
:1018E00003F0AFF90021374803F02EFA0028F4D1B5
:1018F0003549344803F0C9FA10B101203349087062
:1019000006B0BDEC028B10BD10B54FF0FF302C4976
:1019100008600020254908602248006822490860C4
:101920000021052001F0D0F80021062001F0CCF8BC
:1019300010BD10B54FF40071254801F01DFEA0B98F
:101940002448006830B90120224908601548006821
:1019500021490860134800681F490968401A1E2879
:1019600001D3012010BD0020FCE7002019490860C8
:1019700000BFF7E700F01F020121914042099200E9
:1019800002F1E022C2F8001170470146C1F3C750CE
:10199000FF2801D0012070470020FCE75881000893
:1019A000FC02002004000020200000201C00002079
:1019B0001C03002010030020240000202800002029
:1019C0002C000020006400400400F01008000020FB
:1019D00000080240340000203000002030B50246EC
:1019E0000B464FF6FF7016E012F8015B80EA052007
:1019F00000210EE000F400442CB141F2210484EAFD
:101A00004004A4B203E04FF6FF7404EA4004204609
:101A1000491C0829EED31C1EA3F10103E4D130BDFB
:101A20002DE9F04106460C461E21204603F08FFEAC
:101A3000A52020705A2060700120A0703079E070DD
:101A4000002506E0E9003068C840C1B2281D2154D5
:101A50006D1C042DF6D370792072B0796072F07924
:101A6000A072307AE072002510E006F10A0010F84A
:101A7000151068000C30215406F10A0030F81500EA
:101A8000C0F3072168000D3021546D1C082DECD3E4
:101A90001C212046FFF7A2FF074627773812607700
:101AA000BDE8F0812DE9F04104460F461546216A54
:101AB000481C2062675407E0206A401E0246611CF1
:101AC0002062204603F0CFFD206A40B12078A5288F
:101AD000F2D1206A012802D960785A28ECD1206A14
:101AE0001E2802D20020BDE8F081207F617F40EAFD
:101AF0000128A078012805D11C212046FFF76EFFA0
:101B0000404509D0206A401E0246611C20622046E2
:101B100003F0A9FD0020E6E7E078287100202860A6
:101B2000002607E0301D205CF1008840296808434A
:101B30002860761C042EF5D3207A6871607AA8712B
:101B4000A07AE871E07A287200260DE070000C306F
:101B5000215C70000D30205C41EA002001B205F1EB
:101B60000A0020F81610761C082EEFD30020206201
:101B70000120B8E70CB5002001900090764800687D
:101B800040F480307449086000BF7348006800F476
:101B9000003000900198401C0190009818B90198FD
:101BA000B0F5A04FF1D16C48006800F4003010B1DE
:101BB0000120009001E0002000900098012846D10B
:101BC00065484030006840F080506349403108600B
:101BD0006248006840F44040604908605E48083050
:101BE00000685D49083108600846006840F400401C
:101BF00008600846006840F4A05008605848091F73
:101C00000860081F006840F08070091F086000BF6E
:101C10005148006800F000700028F9D040F20570CB
:101C2000504908604C480830006820F003004A49D9
:101C3000083108600846006840F00200086000BFF4
:101C400045480830006800F00C000828F8D10CBDA9
:101C500010B54548006840F47000434908603E48AC
:101C6000006840F001003C49086000203A49083112
:101C70000860394800683D490840374908603C48D9
:101C8000091D0860081F006820F48020091F0860F3
:101C9000002031490C310860FFF76CFF4FF0006005
:101CA00031498039086010BD70B500200022022340
:101CB00000240221284D08352D6805F00C0020B1C4
:101CC000042806D0082834D107E02A4D2A4E356072
:101CD00033E02A4D284E35602FE01F4D2D1D2D6815
:101CE000C5F380541C4D2D1D2D6805F03F0154B1E6
:101CF000224DB5FBF1F5184E361D3668C6F3881631
:101D000005FB06F209E01B4DB5FBF1F5124E361D41
:101D10003668C6F3881605FB06F20F4D2D1D2D689B
:101D2000C5F301456D1C6B00B2FBF3F5124E356037
:101D300003E0104D104E356000BF00BF064D083562
:101D40002D68C5F303150E4E705D0B4D2D68C54013
:101D5000094E356070BD0000003802400070004040
:101D600008544007003C024088ED00E0FFFFF6FE0B
:101D7000103000240024F4003800002000127A0003
:101D80003C00002010B50446FB4804700020FA49CE
:101D90008872C8720873FFF709F8F749886110BDA7
:101DA00010B54421F44803F0F4FCF4A0F2490864AF
:101DB00010BDF148007848B1EF480078162805D0EA
:101DC000ED480078152801D0012070470020FCE77D
:101DD00010B50446FFF798FDE74804641620FFF7A6
:101DE000D1FF2046FFF7C7F910BD2DE9F0410546A8
:101DF0000E46E148007860B9E248FEF78BFA40B140
:101E0000FFF702FB28B1FFF7EAFA10B9FFF7F2FA81
:101E100010B10020BDE8F08100241DE0285D0128FC
:101E200008DB285D062805DC305D012802DB305D1B
:101E3000032801DD0020EDE700270AE0285DE95DC9
:101E4000884203D0305DF15D884201D10020E1E796
:101E50007F1CA742F2D3641C032CDFD3C648298819
:101E6000A0F80110A978C17031888180B1788171A2
:101E70000020C14948720872C8719FEDC30A084624
:101E800080ED080A80ED070A0120FFF77BFF0120A3
:101E9000C0E770B52DED028B0546B0EE408A0C46CA
:101EA000B548807A60B90120B3498872B0EE480A1B
:101EB0002846FFF776FB48B9B4A0FFF789FF05E095
:101EC000FFF78DFA10B92046FFF75CFFBDEC028BDF
:101ED00070BD70B52DED028B0546B0EE408A0C4604
:101EE000A548807A60B90120A3498872B0EE480AFB
:101EF0002846FFF72FFC48B9A8A0FFF769FF05E0C7
:101F0000FFF76DFA10B92046FFF73CFFBDEC028BDE
:101F100070BD2DE9F0412DED048B06460C46964D23
:101F20002435FFF75CFA10B99348C07A18B1BDECBC
:101F3000048BBDE8F0811C21284603F02AFC012017
:101F400028719A480068401C9849086028606E71A2
:101F50008948C179401C405CA8718748C179001D3F
:101F6000405CE871208868816188A981A188E98145
:101F7000E1882982012E01D0032E02D181488430CC
:101F80000CE07D48C179001D405C401EC0EBC000E4
:101F900000EB40017B48D83000EB81000746032E60
:101FA00001D0042E02D107F1440001E007F1340012
:101FB00080460020FFF72BFAF0EE400A042E03D1F2
:101FC000704890ED0A0A01E097ED000A70EEC09AA1
:101FD0000420FFF71CFAD7ED010A30EE609AB4F93D
:101FE000080000EE100AB8EEC00AD8ED000A00EEB4
:101FF000A90AD8ED010AB0EE408A00EE898AB4F948
:102000000A0000EE100AB8EEC00AD8ED020A00EE8F
:10201000A90AD8ED030A00EE890AF0EE408AB4F965
:10202000000000EE100AB8EEC00AB4EEC80AF1EEE5
:1020300010FA26DCB4F90000B4F90410084400EEEC
:10204000100AB8EEC00AB4EEC80AF1EE10FA18D9B8
:10205000B4F9020000EE100AB8EEC00AB4EEE80AC5
:10206000F1EE10FA0DDCB4F90200B4F906100844E0
:1020700000EE100AB8EEC00AB4EEE80AF1EE10FA6B
:1020800003D84BA0FFF7A4FE51E7B0EE480A05F0D5
:1020900017FC01B26982B0EE680A05F011FC01B2CA
:1020A000A982354928680861FEF780FE32494861F7
:1020B0000120C8722846FFF748F800BF37E72DE92E
:1020C000F0412DED048B04462B48C07AC8B120792D
:1020D000022816D1284920680969884211D16179FE
:1020E000254890F8290081420BD1A179224890F827
:1020F0002A00814205D1E1791F4890F82B008142E6
:1021000003D0BDEC048BBDE8F081FEF74FFE1A4909
:102110004969401A1B49C96F884203D928A0FFF7B3
:1021200057FEEEE700201449C872207A00F0030041
:10213000032814D1B4F90E003C2810DBB4F90A00CE
:1021400000280CDBB4F90A00B0F5A07F07DAB4F977
:102150000C00002803DBB4F90C00F02842DB064831
:10216000007B401CC0B204490873032802DB18A09E
:10217000FFF72EFEC5E70000280300204E4F4E4516
:10218000000000004481000800000000415849534D
:102190005F52454A4543544544000000534552565A
:1021A0004F5F52454A454354454400004C000020CF
:1021B0005443505F4F5554534944455F524F490073
:1021C000564953494F4E5F5354414C45000000005F
:1021D000564953494F4E5F554E434F4E4649524D17
:1021E00045440000B4F90A10FE48B0F92E008142BF
:1021F0001ADBFC48B0F92E10B0F932000844B4F9EB
:102200000A10884210DDB4F90C10F648B0F930001D
:10221000814209DBF348B0F93010B0F934000144D1
:10222000B4F90C00814203DCEFA0FFF7D1FD68E7B1
:10223000EC4A12780A2A03D0EA4A1278132A1DD1EE
:10224000B4F90A30E74AB2F93620991A002901DBBD
:102250000A4600E04A42062A0CDCB4F90C30E14A96
:10226000B2F93820981A002801DB024600E0424209
:10227000062A03DDE1A0FFF7ABFD42E7D94800786D
:102280000A2806D10120D74948720B20FFF77AFDB2
:1022900037E7D448007813280AD10020D149487282
:1022A0000846007A401C08721420FFF76BFD28E7EF
:1022B000CC480078062804D0CA4800780E2800D000
:1022C0001FE7C8480078062801D1D0480CE0C5486F
:1022D000C179001D405C401EC0EBC00000EB400116
:1022E000CA48543000EB81000746B4F90A10BD48D3
:1022F000B0F936000D1AB4F90C10BA48B0F938002C
:102300000E1A291E01DB0A4600E04A42BF4B843BFD
:10231000B3F980309A4215DC301E01DB024600E042
:102320004242BA4B843BB3F980309A420ADCAD4951
:102330000978062901D1072100E00F210846FFF79F
:1023400021FDDEE6A748007B401CC0B2A54908730A
:102350000C2803DDAEA0FFF73BFDD2E6D7ED090A5E
:1023600000EE105AB8EEC00A60EE800A97ED0A1A25
:1023700000EE106AB8EEC00AB0EE608A01EE008A84
:10238000D7ED0B0A00EE105AB8EEC00A60EE800AD4
:1023900097ED0C1A00EE106AB8EEC00AF0EE608AF3
:1023A00041EE008AB0EEC80A98488438D0ED190A88
:1023B000B4EEE00AF1EE10FA09DDD0ED190AB0EE44
:1023C000600AF0EE480A05F007FAB0EE408AB0EE77
:1023D000E80A8E488438D0ED1A0AB4EEE00AF1EE2D
:1023E00010FA09DDD0ED1A0AB0EE600AF0EE680AC4
:1023F00005F0F2F9F0EE408AF0EEC80A834884381E
:1024000090ED191A80EE810AF0EEE80A90ED1A1AA2
:10241000C0EE811AB4EEE10AF1EE10FA22DB714847
:1024200090ED070A30EE080A80ED070A90ED070AE2
:10243000B0EEC00A75488438D0ED1B0AB4EEE00A4D
:10244000F1EE10FA0ADC0020FEF7E1FF30EE080A98
:10245000B0EE409A0020FFF7A4F828BB71A0FFF768
:10246000B7FC21E05F4890ED080A30EE280A80EDC5
:10247000080A90ED080AB0EEC00A64488438D0ED2E
:102480001C0AB4EEE00AF1EE10FA0ADC0420FEF7B2
:10249000BEFF30EE280AB0EE409A0220FFF75AF94C
:1024A00010B964A0FFF794FC00BF2AE610B5FFF74F
:1024B00080FC00B910BDFEF79DFF18B162A0FFF7C8
:1024C00087FCF7E7FEF772FC46498969401A4EF629
:1024D0006021884203D960A0FFF77AFCEAE741480F
:1024E000C07A68B1FEF762FC3E494969401A474923
:1024F0008439C96F884203D95BA0FFF769FCD9E72B
:102500003848C179001D405C401EC0EBC00000EBA4
:1025100040013E48543000EB8104324800781528D1
:102520005ED2DFE800F05D0B1621303BCCD1DCE35E
:10253000F9FFF6F5F4F3F2F1F0EFEE0033488438EA
:10254000D0ED090AB0EE600A02210120FFF7A1FCDC
:1025500058E12E488438D0ED0A0AB0EE600A032113
:102560000020FFF796FC4DE11E48C17927485438FA
:1025700000EB8100D0ED000AB0EE600A04210120DA
:10258000FFF7A7FC3EE121488438D0ED220AB0EEE7
:10259000600A05210220FFF79CFC33E11148807A94
:1025A00068B99FED350A0020FFF7D4F818B933A0B9
:1025B000FFF70EFC26E101200A4988727EE00948F7
:1025C000807A012869D1FEF70AFF50B90F48843894
:1025D000D0ED210AB0EE600A0020FEF7E2FF53E0E2
:1025E0000CE15AE028030020564953494F4E5F4FF3
:1025F0005554534944455F524F490000564552498E
:1026000046595F504F534954494F4E00C881000806
:10261000414C49474E5F4E4F545F434F4E564552D3
:1026200047454400414C49474E5F585F4C494D492E
:1026300054000000414C49474E5F414E474C455FB6
:102640004C494D49540000004841524457415245BD
:102650005F4641554C54000053544154455F544922
:102660004D454F555400000043414D4552415F5484
:10267000494D454F555400000000A0424752495073
:102680005F4F50454E00000018B960A0FFF7A0FB57
:10269000B8E002205F49887210E05E48807A022824
:1026A0000CD1FEF79CFE48B99FED5B0A594880EDBE
:1026B000080A80ED070A0620FFF764FBA2E05749ED
:1026C0000120FFF726FC9DE054489038D0ED230A06
:1026D000B0EE600A08210120FFF7DBFB92E0092140
:1026E000B3EE0E0A0020FFF7F4FB8BE04B48903866
:1026F000D0ED090AB0EE600A0A210120FFF7C9FBFC
:1027000080E065E05EE052E046E03EE034E02DE04F
:102710001CE012E006E0FFE740490C310320FFF720
:10272000F8FB6FE03D489038D0ED0A0AB0EE600A41
:102730000C210020FFF7ADFB64E0D4ED010AB0EE00
:10274000600A0D210220FFF7C4FB5BE0D4ED000A14
:10275000B0EE600A0E210020FFF79BFB9FED2E0AD2
:102760002C4880ED080A80ED070A4BE004F10C01CB
:102770000220FFF7CEFB45E0D4ED020AB0EE600A7E
:1027800010210120FFF785FB3CE011211FED460AD7
:102790000020FFF79EFB35E020489038D0ED090A75
:1027A000B0EE600A12210120FFF773FB2AE01B48FC
:1027B0009038D0ED0A0AB0EE600A13210020FFF72E
:1027C00068FB1FE004F118010420FFF7A2FB19E0E9
:1027D0001048C079401CC0B20E49C871032803DA02
:1027E0000120FFF7CFFA08E002200A49C87115203E
:1027F000FFF7C8FA0AA0FEF7BEFC03E00BA0FFF744
:10280000E7FA00BF00BF00BF54E600005049434B49
:102810005F5800002803002000000000D481000859
:10282000444F4E4520332F33000000004241445FA7
:1028300053544154450000001FB504460020009049
:102840000190029003908DF800400A208DF801005D
:102850006D208DF802006B208DF80300042168467E
:10286000FEF720FD1FBD1FB504460020009001901B
:10287000029003908DF800400E208DF80100522048
:102880008DF802006B208DF8030004216846FEF7E6
:1028900009FD1FBD7FB506460D46002400200090AF
:1028A0000190029003900DF80460641C112D68D211
:1028B000DFE805F0090F151B672167272D33393F26
:1028C0006745515C4B001F200DF80400601CC4B22A
:1028D00058E020200DF80400601CC4B252E0212012
:1028E0000DF80400601CC4B24CE024200DF8040074
:1028F000601CC4B246E027200DF80400601CC4B27E
:1029000040E031200DF80400601CC4B23AE03320EE
:102910000DF80400601CC4B234E035200DF804004A
:10292000601CC4B22EE036200DF80400601CC4B256
:1029300028E037200DF80400601CC4B222E03A20E1
:102940000DF80400601CC4B21CE03B200DF804002C
:10295000601CC4B216E042200DF80400601CC4B232
:102960006C200DF80400601CC4B20BE043200DF88D
:102970000400601CC4B27A200DF80400601CC4B2CC
:1029800000E000BF00BF6B200DF80400601CC4B263
:1029900021466846FEF786FC7FBD7FB506460C469D
:1029A0001546002000900190029003908DF8006081
:1029B00046208DF8010069208DF802008DF8034053
:1029C0008DF804506B208DF8050006216846FEF74F
:1029D00069FC7FBD7FB506460C4615460020009079
:1029E0000190029003908DF80060F3208DF80100B3
:1029F000AB208DF802008DF803408DF804506B2059
:102A00008DF8050006216846FEF74CFC7FBD2DE9D8
:102A1000FF4105460F4614461E46DDF8288000207B
:102A200000900190029003908DF80050F6208DF8F0
:102A300001008DF8027020128DF80300E0B28DF8CD
:102A400004008DF805608DF806806B208DF8070076
:102A500008216846FEF726FCBDE8FF812DE9FF4707
:102A600006460F4615469846DDE90D9A0C9C002057
:102A700000900190029003908DF80060FD208DF889
:102A800001008DF8027028128DF80300E8B28DF86D
:102A900004008DF80580200E8DF80600200C8DF8BE
:102AA0000700200A8DF80800E0B28DF809008DF8C3
:102AB0000A908DF80BA06B208DF80C000D21684654
:102AC000FEF7F0FBBDE8FF877FB505460C4600200A
:102AD00000900190029003908DF80050FE208DF838
:102AE000010098208DF802008DF803406B208DF8CE
:102AF000040005216846FEF7D5FB7FBD1FB50446DF
:102B0000002000900190029003908DF80040FF207B
:102B10008DF8010066208DF802006B208DF803000F
:102B200004216846FEF7BEFB1FBD7FB505460C4677
:102B3000002000900190029003908DF800509320A7
:102B40008DF8010088208DF802008DF803406B207D
:102B50008DF8040005216846FEF7A4FB7FBD2DE932
:102B6000F04F89B005460E461746984613AC94E8D8
:102B7000100E202101A802F00CFE8DF804504C200C
:102B80008DF80500AE208DF806008DF807608DF8F1
:102B900008708DF80980129800128DF80A001298BA
:102BA000C0B28DF80B00200E8DF80C00200C8DF8B3
:102BB0000D00200A8DF80E00E0B28DF80F004FEAEC
:102BC00029208DF8100009F0FF008DF811004FEA60
:102BD0002A208DF812000AF0FF008DF813004FEA4A
:102BE0002B208DF814000BF0FF008DF815001798BE
:102BF0008DF816006B208DF81700142101A8FEF740
:102C000051FB09B0BDE8F08F7FB506460C4615466E
:102C1000002000900190029003908DF800609A20AF
:102C20008DF801008DF802408DF803506B208DF86F
:102C3000040005216846FEF735FB7FBD1FB504463D
:102C4000002000900190029003908DF800409C209D
:102C50008DF8010048208DF802006B208DF80300EC
:102C600004216846FEF71EFB1FBD000032490143E8
:102C7000324A1160704770B5002100230F22C478DA
:102C80001CB32E4C246804F4E064C4F5E064C4F37F
:102C90000721C1F10404E3B20A4144789C40E1B247
:102CA0008478144021430C07210E254C057861558A
:102CB000047804F01F050124AC4005786D11AD00C7
:102CC00005F1E025C5F8004109E0047804F01F058E
:102CD0000124AC401B4D0678761145F8264070BDA6
:102CE000194A0A400243154B1B1F1A60704739B13D
:102CF000124A121D12680243104B1B1D1A6006E097
:102D00000E4A121D126882430C4B1B1D1A6070473D
:102D1000042808D14FF0E021096941F004014FF087
:102D2000E022116107E04FF0E021096921F0040180
:102D30004FF0E022116170470000FA050CED00E051
:102D400000E400E080E100E080FFFF1FF948006838
:102D500040F00100F74908600020F649083108609A
:102D6000F4480068F4490840F2490860F348091D36
:102D70000860F348EF4984310860F0481038091DB5
:102D80000860EC48006820F48020EA4908600020D0
:102D9000E8490C310860E7498C3108607047002130
:102DA000E44A921C117011460870704710B5014634
:102DB0000022002300204A11012A02D1DD4C2368A1
:102DC00008E0022A03D1DB4C7034236802E0D94CBE
:102DD0007434236801F01F02012494401C400CB19C
:102DE000012000E0002010BD38B500200090002434
:102DF000002500BF3120FFF7D9FF05460098401C91
:102E000000900098B0F5A04F01D0002DF2D03120F5
:102E1000FFF7CCFF08B1012400E00024204638BDB4
:102E200001460020C34A106820F0F80040EAC100C3
:102E300010607047C349086070470021BD4A703276
:102E400011701170012802D004280AD104E0012178
:102E5000B84A7032117005E00521B64A703211701F
:102E600000E000BF00BF7047B7490860704770B509
:102E7000049C41EA82150126C6EB530645EA064545
:102E8000054345EA0465AB4E361D356070BDAD495E
:102E900008667047820142EA0172A64B84331A60C9
:102EA0007047A8498866704710B5830143EA0163FB
:102EB00043EA02739F4C8834236010BDA149086720
:102EC0007047A049C864704702460020994B0833F8
:102ED000186820F0EC6042EA01031843954B083370
:102EE0001860704702460020924B0833186820F0A3
:102EF000784042EA010318438E4B0833186070474C
:102F0000014600208B4A0832106820F00300084375
:102F10001060704787480830006800F00C00704768
:102F200001460020834A0832106820F0F000084370
:102F300010607047014600207E4A0832106820F475
:102F4000E05008431060704701460020794A08327B
:102F5000106820F4604040EAC10010607047F0B58E
:102F6000002100220024022500260223714F083789
:102F70003F6807F00C0121B1042905D0082937D199
:102F800005E0724F076036E0714F076033E0694F2C
:102F90003F1D3F68C7F38056664F3F1D3F6807F0EF
:102FA0003F036EB16A4FB7FBF3F7DFF888C10CF14E
:102FB000040CDCF800C0CCF3881C07FB0CF40CE01C
:102FC000624FB7FBF3F7DFF86CC10CF1040CDCF8CF
:102FD00000C0CCF3881C07FB0CF4564F3F1D3F6824
:102FE000C7F301477F1C7D00B4FBF5F7076002E0E3
:102FF000564F076000BF00BF4E4F08373F6807F0CD
:10300000F0010909534F7A5C0768D7404760494F80
:1030100008373F6807F4E051890A4E4F7A5C4768E9
:10302000D7408760434F08373F6807F46041490B3A
:10303000484F7A5C4768D740C760F0BD002100F474
:103040004072B2F5407F0AD13A4A0832116821F441
:10305000F811414A02401143364A08321160354A9C
:1030600070321268C0F30B031A43324B70331A608C
:103070007047354944390860704733494039086022
:10308000704736490860704701460020294A8C3253
:10309000106820F01F004A1E1043264A8C32106030
:1030A000704701460020234A8C32106820F4F85003
:1030B0004A1E40EA02201F4A8C32106070470146C7
:1030C00000201C4A8C32106820F440100843106025
:1030D000704701460020174A8C32106820F44000E7
:1030E00008431060704701460020124A8C32106875
:1030F00020F4403008431060704719490860704759
:1031000039B10C4A3032126802430A4B30331A602C
:1031100006E0084A303212688243064B30331A60A8
:103120007047F9B1034A343212680243014B343319
:103130001A601CE000380240FFFFF6EA103000245D
:103140000030002000004742800E47420024F40077
:1031500000127A0050000020FFFCFF0F5C01474284
:10316000E01147428F4A126882438E4B1A607047C3
:1031700039B18C4A121D126802438A4B1B1D1A601A
:1031800006E0884A121D12688243864B1B1D1A6096
:10319000704739B1834A0C3212680243814B0C33B9
:1031A0001A6006E07F4A0C32126882437D4B0C3372
:1031B0001A60704739B17B4A103212680243794B6A
:1031C00010331A6006E0774A103212688243754B5A
:1031D00010331A60704739B1724A243A12680243B8
:1031E000704B243B1A6006E06E4A243A1268824310
:1031F0006C4B243B1A60704739B16A4A203A126816
:103200000243684B203B1A6006E0664A203A126887
:103210008243644B203B1A60704739B1614A1C3AC3
:10322000126802435F4B1C3B1A6006E05D4A1C3A81
:10323000126882435B4B1C3B1A60704739B1594A94
:10324000143A12680243574B143B1A6006E0554A81
:10325000143A12688243534B143B1A60704739B1D9
:10326000504A103A126802434E4B103B1A6006E077
:103270004C4A103A126882434A4B103B1A6070471E
:1032800039B1484A1C3212680243464B1C331A605B
:1032900006E0444A1C3212688243424B1C331A60D7
:1032A000704739B13F4A2032126802433D4B203308
:1032B0001A6006E03B4A203212688243394B2033C1
:1032C0001A60704739B1374A243212680243354BCD
:1032D00024331A6006E0334A243212688243314BA9
:1032E00024331A60704739B12E4A2C3212680243D7
:1032F0002C4B2C331A6006E02A4A2C321268824387
:10330000284B2C331A60704739B1264A3032126884
:103310000243244B30331A6006E0224A30321268EE
:103320008243204B30331A607047012808D11D4971
:103330003C31096841F008011A4A3C32116007E04B
:1033400018493C31096821F00801164A3C321160E5
:10335000704739B1134A273A12780243114B273B81
:103360001A7006E00F4A273A127882430D4B273B2A
:103370001A7070470B484030006840F0807009496F
:1033800040310860704701460020064A283A12681A
:103390000A400AB1012000E00020704701492639A7
:1033A000087070473438024010B50446984884428B
:1033B00008D101210846FFF70EFF00210120FFF789
:1033C0000AFF76E09348844208D101210220FFF7EA
:1033D00002FF00210220FFF7FEFE6AE08E488442D1
:1033E00008D101210420FFF7F6FE00210420FFF799
:1033F000F2FE5EE08948844208D101210820FFF7EF
:10340000EAFE00210820FFF7E6FE52E084488442ED
:1034100008D101211020FFF7DEFE00211020FFF768
:10342000DAFE46E07F48844208D101212020FFF7E0
:10343000D2FE00212020FFF7CEFE3AE07A488442F7
:1034400008D101214020FFF7C6FE00214020FFF7F0
:10345000C2FE2EE07548844208D101218020FFF78A
:10346000BAFE00218020FFF7B6FE22E070488442B9
:1034700008D101218015FFF7AEFE0021A015FFF74E
:10348000AAFE16E06B48844208D101214015FFF7DF
:10349000A2FE00216015FFF79EFE0AE06648844206
:1034A00007D101210015FFF796FE00212015FFF737
:1034B00092FE10BDF0B50A4600210023002400BF93
:1034C0003DE0012505FA01F3156805EA03049C4275
:1034D00034D105684F000326BE40B5430560157919
:1034E0004E00B5400668354305601579012D02D0C0
:1034F0001579022D16D185684F000326BE40B543CD
:10350000856055794E00B5408668354385604568CD
:1035100001268E40B5434560456896798E40B6B227
:1035200035434560C5684F000326BE40B543C560BE
:10353000D5794E00B540C6683543C560491C102991
:10354000BFD3F0BD4FF6FF710160002101714171E1
:103550008171C171704708B54FF480320092009AB2
:103560000A430092009AC261C161009AC261C269B5
:103570000092C269009208BD0246002013690B4008
:103580000BB1012000E0002070470146086980B2BD
:1035900070470246002053690B400BB1012000E048
:1035A000002070470146486980B270470183704728
:1035B000418370470AB1018300E041837047416154
:1035C000704742694A4042617047F0B500230024C9
:1035D0004D07ED0E02FA05F3CE1000F1200555F867
:1035E00026504E07F70E0F26BE40B543CF1000F110
:1035F000200646F82750CE1000F1200555F8265039
:1036000045EA0304CE1000F1200545F82640F0BD40
:10361000000002400004024000080240000C02408A
:10362000001002400014024000180240001C02403A
:1036300000200240002402400028024010B5044649
:10364000FE48844208D101210846FFF708FE002108
:103650000120FFF704FE9DE0B4F1804F08D1012165
:103660000846FFF7EBFD00210120FFF7E7FD91E0A1
:10367000F348844208D101210220FFF7DFFD002139
:103680000220FFF7DBFD85E0EE48844208D10121EE
:103690000420FFF7D3FD00210420FFF7CFFD79E0E0
:1036A000E948844208D101210820FFF7C7FD002125
:1036B0000820FFF7C3FD6DE0E448844208D10121F2
:1036C0001020FFF7BBFD00211020FFF7B7FD61E0E0
:1036D000DF48844208D101212020FFF7AFFD0021FF
:1036E0002020FFF7ABFD55E0DA48844208D10121E4
:1036F0000220FFF7B4FD00210220FFF7B0FD49E0F2
:10370000D548844209D101210804FFF7A8FD002112
:103710004FF48030FFF7A3FD3CE0D048844209D14C
:1037200001214804FFF79BFD00214FF40030FFF713
:1037300096FD2FE0CA48844209D101218804FFF791
:103740008EFD00214FF48020FFF789FD22E0C5485F
:10375000844208D101214020FFF770FD0021402064
:10376000FFF76CFD16E0C048844208D1012180209B
:10377000FFF764FD00218020FFF760FD0AE0BB48F1
:10378000844207D101218015FFF758FD0021A015C3
:10379000FFF754FD10BD00220288A84B98420ED0BE
:1037A000AC4B98420BD0B0F1804F08D0A44B98425C
:1037B00005D0A44B984202D0A34B984204D14FF6B7
:1037C0008F731A404B881A43A04B984207D0A04BE6
:1037D000984204D04FF6FF431A400B891A430280E7
:1037E0004B68C3620B880385944B984202D0994B77
:1037F000984201D18B7A03860123838270474FF070
:10380000FF31416000210180018141808172704758
:103810000185828270470A46002101884FF68F7326
:10382000194011430180704741627047C16270477F
:103830000146486A70470146088D704721B10288E9
:1038400042F00202028004E002884FF6FD731A4043
:103850000280704721B1028842F00402028004E035
:1038600002884FF6FB731A400280704721B102882C
:1038700042F08002028004E002884FF67F731A4013
:103880000280704702884FF6F7731A400280028860
:103890000A430280704702884FF6FF431A400280B5
:1038A00002880A430280704721B1028842F0010277
:1038B000028004E002884FF6FE731A4002807047CF
:1038C00070B5002400220023058C4FF6FE763540AB
:1038D0000584028C8388048B4FF68F752C40B51EAF
:1038E0002C400D882C43751E2A408D892A434D8813
:1038F0002A43524DA84202D0564DA84213D14FF64A
:10390000F7752A40CD892A434FF6FB752A408D88EA
:103910002A434FF6FF652B404FF6FF552B400D8A8B
:103920002B434D8A2B43838004838D684563028437
:1039300070BD70B5002400220023058C4FF6EF7691
:1039400035400584028C8388048B48F6FF752C4033
:103950004FF6FF452C400D884FF6FF7606EA052509
:103960002C434FF6DF752A408D8906EA05152A4358
:103970004D8806EA05152A43304DA84202D0354D40
:10398000A8421DD14FF67F752A40CD894FF6FF76AC
:1039900006EA05152A434FF6BF752A408D8806EAC8
:1039A00005152A434FF6FF352B404FF2FF752B408C
:1039B0000D8A06EA85052B434D8A06EA85052B43C9
:1039C000838004838D688563028470BD70B5002494
:1039D00000220023058C4FF6FF6635400584028CDB
:1039E0008388848B4FF68F752C404FF6FC752C40E6
:1039F0000D882C434FF6FF552A408D894FF6FF76F0
:103A000006EA05252A434D8806EA05252A430B4D7B
:103A1000A84202D00F4DA84238D14FF2FF752A407C
:103A2000CD894FF6FF7606EA05252A434FF6FF3586
:103A30002A408D8806EA05252A4319E00000014046
:103A40000004004000080040000C0040001000404E
:103A500000140040000401400040014000440140C7
:103A60000048014000180040001C004000200040B9
:103A70004EF6FF752B404DF6FF752B400D8A06EA7A
:103A800005152B434D8A06EA05152B438380848355
:103A90008D68C563028470BD70B5002200230024C8
:103AA000058C4EF6FF7635400584038C8488828B26
:103AB00048F6FF752A404FF6FF452A400D884FF61D
:103AC000FF7606EA05252A434DF6FF752B408D89C2
:103AD00006EA05352B434D8806EA05352B43FE4D96
:103AE000A84202D0FD4DA84208D14BF6FF752C40EC
:103AF0000D8A4FF6FF7606EA85152C438480828373
:103B00008D680564038470BD00210180418081803F
:103B100081608181C18101824182704770B5034615
:103B2000002000241846183001258D40ACB21D8CB1
:103B3000A5431D8409B108290AD100EB610005687D
:103B40004FF68F76354005600568154305600FE038
:103B50000D1FC5F34E052844056848F6FF7635402D
:103B6000056005684FF6FF7606EA022635430560D4
:103B700070BD4163704781637047C16370470164E2
:103B800070470A460021018B4FF68F73194011438D
:103B9000018370470A460021018B48F6FF731940E4
:103BA0004FF6FF7303EA02231943018370470A4665
:103BB0000021818B4FF68F73194011438183704729
:103BC0000A460021818B48F6FF7319404FF6FF73B8
:103BD00003EA02231943818370470A460021018BBF
:103BE0004FF6F77319401143018370470A460021CD
:103BF000018B4FF2FF7319404FF6FF7303EA022364
:103C00001943018370470A460021818B4FF6F773F1
:103C100019401143818370470A460021818B4FF27E
:103C2000FF7319404FF6FF7303EA022319438183A0
:103C300070470A460021018B4FF6FB731940114370
:103C4000018370470A460021018B4FF6FF3319406C
:103C50004FF6FF7303EA02231943018370470A46B4
:103C60000021818B4FF6FB7319401143818370470C
:103C70000A460021818B4FF6FF3319404FF6FF7340
:103C800003EA02231943818370470A460021018B0E
:103C90004FF67F7319401143018370470A46002194
:103CA000018BC1F30E014FF6FF7303EA02231943A0
:103CB000018370470A460021818B4FF67F731940BC
:103CC0001143818370470A460021818BC1F30E01A5
:103CD0004FF6FF7303EA02231943818370470A46B4
:103CE0000021018C4FF6FD73194011430184704788
:103CF0000A460021018C4FF6F773194011430184E5
:103D000070470A460021018C4FF6DF7319404FF6C9
:103D1000FF7303EA02131943018470470A46002126
:103D2000018C4FF67F7319404FF6FF7303EA0213BD
:103D30001943018470470A460021018C4FF6FF5356
:103D400019404FF6FF7303EA0223194301847047B9
:103D50000A460021018C4FF2FF7319404FF6FF73A2
:103D600003EA02231943018470470A460021018CAB
:103D70004DF6FF7319404FF6FF7303EA0233194300
:103D80000184704730B5002301248C40A3B2048C19
:103D90009C430484048C02FA01F5ADB22C430484E4
:103DA00030BD30B5002304248C40A3B2048C9C4366
:103DB0000484048C02FA01F5ADB22C43048430BDB6
:103DC000828B4FF2FF331A408283828B4FF6FF7350
:103DD00003EA01231A4382837047F0B50C46154667
:103DE000002100220026078C4EF6FF7C07EA0C0714
:103DF0000784818B028C4FF6FF7707EA043640F682
:103E0000FF4739404FF6FF7707EA052739434FF65A
:103E1000FF7707EA0337394345F6FF773A4046F420
:103E200080573A4381830284F0BD828B4FF6F3734F
:103E30001A408283828B0A4382837047F0B50C4616
:103E40001546002100220026078C4FF6FF6C07EA7A
:103E50000C070784818B028C4FF6FF7707EA042654
:103E60004FF60C7739404FF6FF7707EA03172F43D9
:103E700039434FF2FF573A4046F480773A43818303
:103E80000284F0BD028B4FF2FF331A400283028B93
:103E90004FF6FF7303EA01231A4302837047F0B51C
:103EA0000C461546002100220026078C4FF6EF7CB9
:103EB00007EA0C070784018B028C4FF6FF7707EAAD
:103EC000041640F6FF4739404FF6FF7707EA0337FD
:103ED00039434FF6FF7703E0000001400004014042
:103EE00007EA052739434FF65F773A4046F0100757
:103EF0003A4301830284F0BD028B4FF6F3731A40FC
:103F00000283028B0A4302837047F0B50C461546C4
:103F100000210022068C4FF6FE773E400684018B7E
:103F2000028C4FF60C7631407E1C06EA03162E43B7
:103F300031434FF6F576324044F0010632430183B7
:103F40000284F0BD70B505460C46208850B923891F
:103F5000A28861882846FFF7D8FFE1882846FFF746
:103F6000CBFF25E0208804280AD12389A288618814
:103F70002846FFF794FFE1882846FFF783FF17E004
:103F8000208808280AD12389A28861882846FFF75B
:103F900055FFE1882846FFF748FF09E02389A288FA
:103FA00061882846FFF719FFE1882846FFF708FFD8
:103FB00070BD002101804180012181800021C180EC
:103FC000018170472DE9F04105460C460026012786
:103FD000608808B9022600E00026A088012801D1E7
:103FE000022700E001272088A0B92389A2886188E0
:103FF0002846FFF78AFFE1882846FFF77DFF2389DF
:104000003A4631462846FFF74AFFE1882846FFF73F
:1040100039FF13E02389A28861882846FFF73FFF14
:10402000E1882846FFF72EFF23893A463146284685
:10403000FFF76BFFE1882846FFF75EFFBDE8F081E0
:104040000146486B70470146886B70470146C86B54
:1040500070470146086C70470A884B881A438B8862
:104060001A43CB881A430B891A434B891A438B890D
:104070001A43A0F8442070470021018041808180CC
:10408000C180018141818181704731B1B0F8442004
:1040900042F40042A0F8442005E0B0F84420C2F306
:1040A0000E02A0F84420704721B1828842F0040239
:1040B000828004E082884FF6FB731A40828070474A
:1040C00021B1828842F00102828004E082884FF6AA
:1040D000FE731A40828070471AB183890B43838133
:1040E00002E083898B438381704781827047024657
:1040F0000020138A0B400BB1012000E00020704724
:10410000CA430282704730B50246002000230024D3
:10411000158A05EA0103958905EA010413B10CB17A
:10412000012000E0002030BDCA430282704741EA0E
:104130000203A0F8483070471AB183890B4383818A
:1041400002E083898B438381704721B1828842F0EA
:104150000802828004E082884FF6F7731A4082805A
:10416000704701894FF6F8721140018170470A4685
:10417000002101894FF68F73194011430181704767
:1041800030B504460D4629462046FFF7F0FF20894A
:1041900040F00700208130BD2DE9F04104460D4676
:1041A00016461F46602D06D13B4601223146204669
:1041B000FFF775FE05E03B46012231462046FFF73A
:1041C000A4FE29462046FFF7D2FF208940F00700D1
:1041D0002081BDE8F08130B50C4600210189C9B2CB
:1041E0004FF6FF7505EA0325154325432943018151
:1041F00030BD2DE9F04105460E461746984600248D
:1042000043463A4631462846FFF7E5FF2C894FF6EC
:10421000F870044044F007044FF68F70044044F0F7
:1042200070042C81BDE8F081F0B504460D461646B9
:104230001F463B46324629462046FFF7CCFF2089E1
:1042400040F480402081F0BD82884FF68F731A4081
:10425000828082880A438280704702894FF6F87311
:104260001A40028102890A430281704702894FF68F
:104270007F731A40028102890A4302817047F0B5B8
:104280000C4615461E460021002200230189028BA0
:10429000038C4FF6F877394021434FF6FC473A40FC
:1042A00040F201173A434FF6DD773B404FF6FF7778
:1042B00007EA06172F433B43018102830384F0BDC5
:1042C00021B1828842F08002828004E082884FF629
:1042D0007F731A4082807047A0F85010704700002A
:1042E00010B50446FA48844208D101211020FEF797
:1042F000B6FF00211020FEF7B2FF57E0F5488442D8
:1043000009D101214804FEF799FF00214FF4003044
:10431000FEF794FF4AE0F048844209D10121880465
:10432000FEF78CFF00214FF48020FEF787FF3DE071
:10433000EA48844209D10121C804FEF77FFF002129
:104340004FF40020FEF77AFF30E0E548844209D1BF
:1043500001210805FEF772FF00214FF48010FEF7DF
:104360006DFF23E0DF48844208D101212020FEF7C1
:1043700076FF00212020FEF772FF17E0DA48844222
:1043800009D101218807FEF759FF00214FF0804035
:10439000FEF754FF0AE0D548844207D101214005C9
:1043A000FEF74CFF00216005FEF748FF10BD2DE928
:1043B000FF4705460E460024A14600BFA046B0892F
:1043C00000B100BF2C8A24F44054F08804432C82AE
:1043D000AC8941F20C608443B0883189084371890B
:1043E00008430443AC81AC8A24F44074B08904438C
:1043F000AC826846FEF7B3FDB548854202D0B948A5
:10440000854202D1DDF80C9001E0DDF80890A88922
:1044100000F4004040B109EBC90000EB091031681D
:104420004900B0FBF1F707E009EBC90000EB091008
:1044300031688900B0FBF1F76420B7FBF0F00401AC
:104440002009642101FB1078A88900F4004040B1E4
:10445000322000EBC800B0FBF1F000F0070004438D
:1044600008E0322000EB08106421B0FBF1F000F00E
:104470000F0004432C81BDE8FF874FF41651016003
:1044800000218180C18001810C2141810021818135
:10449000704710B502460020108A20F470600B8827
:1044A0004C8823438C882343CC88234318431082B1
:1044B00010BD0021018041808180C180704721B101
:1044C000828942F40052828104E082894DF6FF73B2
:1044D0001A4082817047028B02F47F420283028B72
:1044E0000A430283704721B1828942F400428281EB
:1044F00003E08289C2F30E028281704721B1828A71
:1045000042F40062828204E0828A4FF2FF731A4012
:1045100082827047C1F30802828070470146888812
:10452000C0F308007047028A4FF6F0731A40028207
:10453000028A0A430282704721B1828942F0020254
:10454000828104E082894FF6FD731A4082817047B0
:1045500082894FF2FF731A40828182890A438281E5
:104560007047028A4FF6DF731A400282028A0A43BA
:104570000282704721B1028A42F48042028204E042
:10458000028A4BF6FF731A4002827047818941F01C
:1045900001018181704721B1828A42F00802828242
:1045A00004E0828A4FF6F7731A4082827047028BCA
:1045B000D2B20283028B42EA01220283704721B108
:1045C000828A42F02002828204E0828A4FF6DF7300
:1045D0001A408282704721B1828A42F010028282A0
:1045E00004E0828A4FF6EF731A4082827047828A13
:1045F0004FF6FB731A408282828A0A438282704796
:1046000021B1828A42F00202828204E0828A4FF65D
:10461000FD731A40828270471AB1838A0B438382EA
:1046200002E0838A8B4383827047F0B503460024FF
:1046300000260025002040F66A17B94200D100BFCD
:104640001846C1F3421401F01F06012707FA06F5C8
:10465000012C01D10C3004E0022C01D1103000E01B
:1046600014301AB107682F43076002E00768AF43B0
:104670000760F0BD02460020B1F5007F00D100BF09
:1046800013880B400BB1012000E00020704701F4BB
:104690000072B2F5007F00D100BFCA4302807047AC
:1046A00070B50246002400230025002040F66A165B
:1046B000B14200D100BFC1F3421501F01F03012632
:1046C00006FA03F3012D13D19689334017E0000059
:1046D000001001400044004000480040004C0040F1
:1046E000005000400014014000780040007C004071
:1046F000022D02D1168A334001E0968A33400C1213
:10470000012606FA04F41688344013B10CB10120D6
:1047100000E0002070BD10B50022002340F66A14AE
:10472000A14200D100BF0A1201249440A3B2DC438D
:10473000048010BD10B50446FE48844209D1012111
:104740004806FEF77BFD00214FF00070FEF776FD76
:1047500008E001218806FEF771FD00214FF080601E
:10476000FEF76CFD10BD30B5024600200023146832
:1047700024F002041460146844F00104146000E0A2
:104780005B1C546804F001041CB94FF6FF74A3428B
:10479000F6D1546804F001040CB900206CE08C7967
:1047A000012C04D1146844F08004146003E0146800
:1047B00024F080041460CC79012C04D1146844F0F6
:1047C0004004146003E0146824F0400414600C7A80
:1047D000012C04D1146844F02004146003E0146830
:1047E00024F0200414604C7A012C04D1146844F0A5
:1047F0001004146003E0146824F0100414608C7A30
:10480000012C04D1146844F00804146003E0146817
:1048100024F008041460CC7A012C04D1146844F00C
:104820000404146003E0146824F0040414608C7819
:10483000A407CD7844EA05640D7944EA05444D792E
:1048400044EA05540D886D1E2C43D461146824F08D
:1048500001041460002300E05B1C546804F00104B0
:104860001CB14FF6FF74A342F6D1546804F0010462
:104870000CB1002000E0012030BD10B50021837A8A
:10488000012202FA03F1AC4A126842F00102AA4B7B
:104890001A60A94A1C3212688A43A74B1C331A605B
:1048A000027BCAB9A44A0C3212688A43A24B0C3369
:1048B0001A604288C38842EA03439F4A4032847A9E
:1048C00042F834300288838842EA03439A4A4032ED
:1048D000847A02EBC4025360027B012A19D1964A02
:1048E0000C3212680A43944B0C331A6042880388D6
:1048F00042EA0343904A4032847A42F83430C28814
:10490000838842EA03438C4A4032847A02EBC40231
:104910005360C27A3AB9884A121D12688A43864B9C
:104920001B1D1A6006E0844A121D12680A43824B5E
:104930001B1D1A60028932B97F4A143212688A43F9
:104940007D4B14331A600289012A06D17A4A143247
:1049500012680A43784B14331A60427B012A06D14D
:10496000754A1C3212680A43734B1C331A60724A30
:10497000126822F00102704B1A6010BD0021817193
:10498000C171017241728172C1728170C170032163
:104990000171022141710121018070476649096856
:1049A00041F00101644A11601146096843F60E7234
:1049B0009143614A11601146096841EA0021116082
:1049C0001146096821F001011160704721B10268A8
:1049D00042F48032026003E0026822F48032026016
:1049E0007047E1B1026842F0800202604FF4C27287
:1049F000125842F480734FF4C27213504FF4CA72CB
:104A0000125842F480734FF4CA7213504FF4D272AA
:104A1000125842F480734FF4D27213501BE00268B4
:104A200022F0800202604FF4C272125822F48073A6
:104A30004FF4C27213504FF4CA72125822F48073AA
:104A40004FF4CA7213504FF4D272125822F480738A
:104A50004FF4D2721350704710B50246002093688D
:104A600003F08063B3F1806F00D110E0936803F02E
:104A70000063B3F1006F01D1012008E0936803F0F7
:104A80008053B3F1805F01D1022000E004200428AC
:104A900079D002F5C07303EB00131B6803F0010427
:104AA00002F5C07303EB00131C600B7A7BB94B7AE1
:104AB0000C8843EA445302F5C07404EB00142468E4
:104AC000234302F5C07404EB0014236010E00B7A5A
:104AD0004C6843EAC4034C7A234302F5C07404EBE8
:104AE00000142468234302F5C07404EB001423600F
:104AF0008B7A03F00F038B7202F5C07303EB001384
:104B00005B6823F00F0402F5C07303EB00135C60D5
:104B100002F5C07303EB00135B688C7A234302F544
:104B2000C07404EB001463608B7B1C064B7B44EA6F
:104B3000034403E000640040006600400B7B44EA4D
:104B40000323CC7A234302F5C07404EB0014A36062
:104B50008B7C1C064B7C44EA03440B7C44EA032315
:104B6000CC7B234302F5C07404EB0014E36002F530
:104B7000C07303EB00131B6843F0010402F5C0731C
:104B800003EB00131C6010BD10B50246002321B1D9
:104B9000012907D002290FD109E09068F94C00EAF9
:104BA00004030BE09068F84C00EA040306E0906808
:104BB000F64C00EA040301E0002300BF00BFF44C00
:104BC000181BA34216D007DC83B16FF08060184435
:104BD00070B1022818D111E0B0F5007F10D0ED4C73
:104BE000204448B1B0F5003F0ED10BE002230DE0A8
:104BF00000230BE0002309E0002307E0012305E088
:104C0000012303E0012301E0002300BF00BFD8B26D
:104C100010BD21B1012907D002290FD109E0826816
:104C200042F0800282600AE0826842F400428260C0
:104C300005E0826842F40002826000E000BF00BF2D
:104C4000704710B500F5D87303EB01131B6803F030
:104C500004031372137A53B900F5D87303EB0113ED
:104C60001B6840F2FF7404EA5353136009E000F537
:104C7000D87303EB01131B686FF0604404EAD3039D
:104C8000536000F5D87303EB01131B6803F00203B4
:104C9000537200F5D87303EB01135B6803F00F0345
:104CA000937200F5D87303EB01135B681B0AD3748E
:104CB00000F5D87303EB01139B68D37200F5D8732A
:104CC00003EB01139B681C0A147300F5D87303EB04
:104CD00001139B681C0C547300F5D87303EB01138C
:104CE0009B681B0E937300F5D87303EB0113DB680D
:104CF000D37300F5D87303EB0113DB681C0A14743B
:104D000000F5D87303EB0113DB681C0C547400F539
:104D1000D87303EB0113DB681B0E937421B9C368CE
:104D200043F02003C36003E0036943F02003036101
:104D300010BD21B9C26842F02002C26003E00269DE
:104D400042F02002026170470246002019B9D36880
:104D500003F0030006E0012903D1136903F0030007
:104D600000E00020704710B502460B4600204FF6C9
:104D7000FF71BBB9146824F0020444F0010414600C
:104D800000E0491E546804F00304012C01D00029FE
:104D9000F7D1546804F00304012C01D0002032E064
:104DA000012030E0012B13D1146824F003041460B7
:104DB00000E0491E546804F003040CB10029F8D146
:104DC000546804F003040CB100201CE001201AE038
:104DD000022B17D1146824F0010444F0020414607B
:104DE00000E0491E546804F00304022C01D000299D
:104DF000F7D1546804F00304022C01D0002002E033
:104E0000012000E0002010BD014600200A6822F0C9
:104E1000010242F002020A604A6802F00302022A1A
:104E200000D10120704701464FF6FF7200200B6849
:104E300023F002030B6000E0521E4B6803F00203F4
:104E4000022B01D1002AF7D14B6803F00203022B99
:104E500000D001207047014600208A6902F07000EE
:104E60007047014600208A69100E704701460020F5
:104E70008A69C2F3074070471AB143690B43436123
:104E800002E043698B434361704710B5024600203E
:104E900001F4700343B19369C1F3130423400BB1D0
:104EA00001202DE000202BE001F0807343B1536816
:104EB000C1F3130423400BB1012021E000201FE0C7
:104EC00001F0006343B19368C1F3130423400BB1B5
:104ED000012015E0002013E001F0007343B1D36816
:104EE000C1F3130423400BB1012009E0002007E0C7
:104EF0001369C1F3130423400BB1012000E000202B
:104F000010BD0022244B994202D10023836111E09D
:104F1000C1F3130201F000730BB1C2600AE001F0AB
:104F200080630BB1026105E001F000630BB18260A8
:104F300000E0426070470246002002EA01030BB124
:104F4000012000E00020704770B504460D460026A1
:104F500060692840002872D0B5F5807F69D01DDCDB
:104F6000082D42D006DC012D2DD0022D31D0042D8C
:104F70007FD134E0102D3ED0202D42D0402D78D16D
:104F800045E00000030000040003000800000310D7
:104F9000000100080001FFF77000F030B5F5004F88
:104FA00061D009DCB5F5007F4AD0B5F5806F4DD0F2
:104FB000B5F5006F5DD150E0B5F5803F2DD0B5F56A
:104FC000003F56D12FE0A0685549FFF7B4FF0646D1
:104FD00051E0E0680321FFF7AEFF06464BE0E068D2
:104FE0000821FFF7A8FF064645E0E0681021FFF71B
:104FF000A2FF06463FE020690321FFF79CFF06461B
:1050000039E020690821FFF796FF064633E0206962
:105010001021FFF790FF06462DE060680821FFF79A
:105020008AFF064627E060681021FFF784FF0646E6
:1050300021E0A0690121FFF77EFF06461BE01BE08F
:10504000A0690221FFF777FF064614E0A06904215A
:10505000FFF771FF06460EE00BE0A0697021FFF735
:105060006AFF064607E060680421FFF764FF064612
:1050700001E0002600BF00E00026304670BDB1F51B
:10508000007F3AD00FDC202928D006DC01291CD073
:1050900004291DD0082940D11DE0402921D0B1F5B7
:1050A000807F3AD126E0B1F5004F31D006DCB1F572
:1050B000806F25D0B1F5006F2FD124E0B1F5803F8E
:1050C00012D0B1F5003F28D111E0154A826025E0E9
:1050D0000822C26022E01022C2601FE008220261A2
:1050E0001CE01022026119E00822426016E0102242
:1050F000426013E00422426010E0042242600DE0AE
:10510000042242600AE0002282610422426005E03B
:10511000002282610422426000E000BF00BF7047AD
:10512000010101000948804709480047FEE7FEE702
:10513000FEE7FEE7FEE7FEE7FEE7FEE7FEE7FEE747
:1051400004480549054A064B70470000511C0008F9
:1051500089010008D0030020D0090020D0050020DC
:10516000D00500200FB41CB50C0007AA009001D098
:105170002044401E074B7B4469460190069800F08E
:10518000EAFD002C03D06946002000F0F7FD1CBCAE
:105190005DF814FB0D0C000070B50C460546012AA5
:1051A00005D02878800600D5EA69002302E00123B3
:1051B00005E05B1C934202D2E05C0028F9D1A869AB
:1051C000E618C01AA861286A184428622846AFF376
:1051D000008004E0D5E9012114F8010B9047B442A6
:1051E000F8D32846AFF3008070BD00002DE9F041F0
:1051F0000646002410687529314616A510D0AFF375
:105200000080002802DA404213A507E031688A07CF
:1052100001D512A502E0490704D511A5012401E03A
:10522000AFF3008000210A2206F1240709E0B0FB59
:10523000F2FCB0FBF2F302FB1C003030785418464D
:10524000491C0028F3D123462A463046BDE8F041E8
:1052500000F014BB000000002D0000002B00000037
:10526000200000002DE9F0474FF0000A894604466F
:10527000C0F820A02046E1688847002876D025287D
:1052800006D0D4E901219047206A401C2062F1E752
:10529000E168204600258847C4F81CA00646002780
:1052A000C4F818A02A2E09D0304602F0A0FB38B36B
:1052B00004EB8708303EC8F8186019E059F8041B61
:1052C000204604EB87029161E1688847012F06467A
:1052D00018D1E069002820DA25F020051DE0D8F873
:1052E000180000EB800006EB40003038C8F81800CA
:1052F0002046E1688847064602F079FB0028EED197
:10530000012F0AD02E2E08D12046E16888477F1C45
:105310000646022F45F02005C4DBA069002803DA09
:10532000404245F00105A061E80701D025F01005D5
:10533000B6B1A6F14100192802D8203645F400651F
:105340004A463146204625604D46FAF757FF58B188
:10535000012806D0ED1D25F0070000F1080989E7B6
:1053600004E005F1040985E730468AE7206ABDE8D4
:10537000F08700000FB400B58DB010A9099000911E
:105380000B904FF0FF300A9000200C9006487844B4
:105390000690064878446A4607900F9909A800F0DD
:1053A000A1FF0DB05DF814FB730F00008B0F000020
:1053B0002DE9FF5F1D464FF0FF3B91464FF000087F
:1053C0005F46D5E90146A96901987F1C8847296A8B
:1053D000824688470028F6D1BAF1FF3F0CD0002E54
:1053E00024F4C06419DD600614D5BAF12B0F09D07E
:1053F000BAF12D0F0ED103E0584604B0BDE8F09F7E
:1054000044F48064A96901987F1C8847761E82460F
:10541000002E02DDBAF1300F03D0B9F1000F26D013
:1054200032E0A969761E01987F1C44F40074884715
:10543000002E824605DDBAF1780F06D0BAF1580F7A
:1054400003D0B9F1000F10D01EE0B9F1000F02D067
:10545000B9F1100F18D1A969761E01987F1C24F4A8
:10546000007488478246102002E0082000E00A20ED
:10547000814609E0A96908FB0908761E01987F1C8E
:1054800044F4007488478246002E05DD49465046A4
:1054900000F097FC0028EDDAE96901988847A0053B
:1054A00002D46FF00100A8E7E00725D1600613D50C
:1054B000600502D5C8F1000000E0404629680A1DD9
:1054C0002A600968220501D5087015E0220701D578
:1054D000088011E008600FE02868011D296000685D
:1054E000210502D580F8008006E0210702D5A0F84A
:1054F000008001E0C0F8008038467EE72DE9FF5FBC
:105500004FF000089946144646469169D2E901A732
:10551000DDF838B001988847054659EA0B0005D0F8
:1055200009E0A1690198761C88470546216A28464A
:1055300088470028F5D1681C03D05FEACA7005D0FF
:1055400015E04FF0FF3004B0BDE8F09F2068011D6A
:105550002160D0F800800AE05FEACA7001D108F843
:10556000015BA169761C01987F1E88470546002FC4
:105570001ADD681C18D0B9F1000F0DD0E81705EB43
:10558000D060421120F01F0059F822102A1A012081
:1055900090400142E0D107E0BBF1000FDCD128468A
:1055A000216A88470028D7D0E16901988847BBF174
:1055B000000F07D1002E05DD5FEACA7002D100217D
:1055C00088F80010A068B84203DDBBF1000F03D0DB
:1055D00017B16FF00100B6E73046B4E7032A40F296
:1055E000308010F0030C00F0158011F8013BBCF185
:1055F000020F624498BF11F801CB00F8013B38BF9D
:1056000011F8013BA2F1040298BF00F801CB38BFAA
:1056100000F8013B11F0030300F06780083AC0F086
:10562000088051F8043B083A51F804CBA0E8081070
:10563000F5E7121D5CBF51F8043B40F8043BAFF3A3
:105640000080D20724BF11F8013B11F801CB48BFFD
:1056500011F8012B24BF00F8013B00F801CB48BF33
:1056600000F8012B7047431A28BF9A427FF6B6AF65
:10567000032A1044114440F2268010F0030F1EBF8D
:1056800011F8013D521E00F8013D10F0030F7FF4A8
:10569000F6AF11F0030300F06886083AC0F00B8003
:1056A00051F8043D083A51F804CD40F8043D40F863
:1056B00004CDFFF7F3BF121D5CBF51F8043D40F865
:1056C000043DAFF30080D20724BF11F8013D11F86B
:1056D00001CD48BF11F8012C24BF00F8013D00F8AE
:1056E00001CD48BF00F8012C704710B5203AC0F03A
:1056F0000B80B1E81850203AA0E81850B1E81850D3
:10570000A0E81850BFF4F5AF5FEA027C24BFB1E80F
:105710001850A0E8185044BF18C918C0BDE8104080
:105720005FEA827C24BF51F8043B40F8043B08BF89
:105730007047D20728BF31F8023B48BF11F8012B50
:1057400028BF20F8023B48BF00F8012B70474FF0FC
:1057500000020429C0F0128010F0030C00F01B803E
:10576000CCF1040CBCF1020F18BF00F8012BA8BF4C
:1057700020F8022BA1EB0C0100F00DB85FEAC17C10
:1057800024BF00F8012B00F8012B48BF00F8012BC3
:1057900070474FF0000200B51346944696462039F4
:1057A00022BFA0E80C50A0E80C50B1F12001BFF4DA
:1057B000F7AF090728BFA0E80C5048BF0CC05DF840
:1057C00004EB890028BF40F8042B08BF704748BF8E
:1057D00020F8022B11F0804F18BF00F8012B704702
:1057E0004FF0013C50F8042B51F8043B9A4221D170
:1057F000A2EB0C03934313EACC1317D150F8042BFC
:1058000051F8043B9A4215D1A2EB0C03934313EADF
:10581000CC130BD150F8042B51F8043B9A4209D118
:10582000A2EB0C03934313EACC13DBD04FF0000040
:10583000704700BFD01A01BAB1FA81F101F0180126
:1058400022FA01F0CB40C1F12001DBB2C0B2C01A94
:105850002CFA01F3D11A914311EAC311E6D1704732
:1058600070477047704710B500F0AEFD006810BD7E
:1058700010B5044600F0A8FD046010BD2DE9F04706
:105880000D4699469246044600F1240801688806B0
:1058900004D5E06921F01001216000E00120A84258
:1058A00001DD471B00E00027A1697A1902EB09001E
:1058B000081AA0612078C00602D42046AFF3008009
:1058C000002608E0D4E901211AF806009047206A72
:1058D000401C761C20624E45F4DB2078C0060AD5B9
:1058E0002046AFF3008006E0D4E901213020904744
:1058F000206A401C2062381EA7F10107F4DC07E093
:10590000D4E9012118F805009047206A401C206264
:10591000281EA5F10105F3DC2046AFF300802078B6
:10592000000602D50220BDE8F0870120FBE77047A2
:105930002DE9FF4F0C461E464FF0FF378BB0D2E9E2
:105940000001DDF860800A908A46C1F30A5505B966
:105950003D46002108464FF00000BAF1000F00F468
:10596000400005DA00EB80004FF4400101EA5000EE
:105970004FEA9059B9F1010F00DDB9460A9850EA93
:105980004A000ED044F61050A5F2FF3545432F14BF
:10599000B8F1000F1ED07542291E1EDDC9F10002AC
:1059A0001CE0B8F1010F4FF0000001D0302103E0FE
:1059B000F24305E02154401CB042FBDB304600229C
:1059C000002121540B99C1F80880C1E900200FB0D3
:1059D000BDE8F08FBD1B6D1CDEE74A4600DA694268
:1059E00006A800F03DFF06AB93E8070003AB83E891
:1059F000070050460A9901F024FA8DE80700A0F547
:105A000000501F3800900398002D0ADD42F21F015C
:105A10004A460844002303A90390684601F0D0FCDD
:105A200009E0A0F500504A461F38002303A903905F
:105A3000684601F0EFFC8DE807000004000C03D07D
:105A40004FF0FF30410800E01046B8F1000F03D0DE
:105A50000022009215461EE0751E05D400F0B8FC29
:105A6000303262556D1EF9D5B3460122084302D08B
:105A700000227F1C04E02078302801D100227F1E04
:105A8000002A099784D01DE0112D07DA00F0A0FC50
:105A9000303262556D1C50EA0102F5D1084302D044
:105AA0000098C8B10EE00021681E05E0235C625C2E
:105AB00063542254401E491C8142F7DBAB46A81BAD
:105AC000401E0990002004F80B000B98099AC0F8BA
:105AD0000880C0E9002B7AE711264FF0000857E74D
